:020000040000FA
:101000001AEF08F0036A026EFF0E0226032200D0D8
:10101000D8A01200030E016EE50E02D8F5D7016AC2
:10102000FC0F006E0000E86A01D000060000015AC3
:10103000FCE21200F86AAB6A0001010E036EF40EC6
:10104000E2DF070EB46E0F0EC16E926A936A040E51
:10105000966E846A010E056E010E84B4E86A046E11
:10106000010E055C010ED8A4000E0416D8B43BEFA7
:1010700008F04BEF08F0010E84B4E86A046E020E2B
:10108000055C010ED8A4000E0416D8B44AEF08F08F
:1010900055EF08F0E1D784B44FEF08F0FCD784A4F3
:1010A00054EF08F05FEF08F0D7D784B459EF08F099
:1010B000FCD784A45EEF08F063EF08F0CDD7020EF2
:1010C000056E8180C9D7010E056E8190C5D70300DA
:0410D000FED7FFD771
:020000040030CA
:08000000C0FCFFEEFFFD9BFFB9
:00000001FF
