:020000040000FA
:101000008FEF08F0800E016EFE0E66D8010E64D8D8
:10101000750E046E300E70D0016A018E0A6EFE0EDF
:101020005BD80A5059D0A66AA68E0900F55002E096
:1010300002D8FBD71200086E8A9600008A94939615
:1010400093940F0E9316085000B21ED03A0E046E01
:10105000980E52D8330E076E28D8130E046E880EE1
:101060004BD823D8640E47D820D8640E44D8220E1B
:10107000076E1BD8280E07D80C0E05D8060E03D80D
:101080000082085001D00080076E00A009D08A9429
:1010900003080AE309D8070E046ED00E2DD81200FB
:1010A0000080FE0817E08A8400A000908A860F0E58
:1010B00081160750F00B8112000000D000000000E4
:1010C0008A96073A000000D00000000000B0EDD77B
:1010D000320E11D80850120001BEADD7066A056E57
:1010E000FF0E0526062200D0D8A01200030E046EC3
:1010F000E60E02D8F5D7046AFE0F036E0000E86A18
:10110000045AD8A01200030600D000D0F7D74D65CE
:10111000636174726F6E6963612054656300006A75
:101120000001960EDBDF0F0EC16E070EB46EFE0ED1
:1011300082DF400E80DF000E7EDF0F0E7CDF1F0E91
:101140007ADF180E78DF180E76DF180E74DF1F0EA8
:1011500072DF0F0E70DFFE0E6EDF480E6CDF000ECA
:101160006ADF1F0E68DF1F0E66DF000E64DF1F0ED2
:1011700062DF000E60DF1F0E5EDF1F0E5CDFFE0E03
:101180005ADF500E58DF000E56DF1E0E54DF1F0EC2
:1011900052DF030E50DF030E4EDF030E4CDF1F0E37
:1011A0004ADF1E0E48DF0B6A010E0C6E020E0D6E3A
:1011B00029DF800E016EC00E2FDF110EF76E0E0EAE
:1011C000F66E31DF800E016E820E26DF0B5033DFAC
:1011D000800E016E830E20DF0C502DDF800E016E1D
:1011E000840E1ADF0C5027DF800E016E850E14DF8F
:1011F0000C5021DF800E016E860E0EDF0C501BDFBF
:10120000800E016E870E08DF0C5015DF800E016E18
:0E121000880E02DF0D500FDFCCD7FFD7FFD7BF
:020000040030CA
:08000000C0FCFFEEFFFD9BFFB9
:00000001FF
