:020000040000FA
:10100000AFEF08F0800E016EFE0E8EEC08F0010EC0
:101010008EEC08F0750E046E300E9FEF08F0016A3A
:10102000018E0C6E0C5202E1000E01D0010E0C5E1E
:10103000400E0202F350400F0C26FE0E8EEC08F01C
:101040000C508EEF08F0016A018E0C6EFE0E8EECD5
:1010500008F00C508EEF08F0A66AA68E0900F55035
:1010600002E002D8FBD712000A6E8A9600008A942A
:10107000939693940F0E93160A5000B262EF08F005
:101080003A0E046E980E9FEC08F0330E096E2DD8C0
:10109000130E046E880E9FEC08F027D8640E9EECA9
:1010A00008F023D8640E9EEC08F0220E096E1DD8BD
:1010B000280E07D80C0E05D8060E03D800820A5059
:1010C00001D00080096E00A00BD08A9403080CE3C5
:1010D0000BD8070E046ED00E9FEC08F0D8801200DB
:1010E0000080FE0819E08A8400A000908A860F0E16
:1010F00081160950F00B8112000000D000000000A2
:101100008A96093A000000D00000000000B0EDD738
:10111000320E9EEC08F0D8800A50120001BE34EF67
:1011200008F0066A056EFF0E0526062200D0D8A03C
:101130001200030E046EE60E02D8F5D7046AFE0F05
:10114000036E0000E86A045AD8A01200030600D01B
:1011500000D0F7D745726963204D65636100F86A76
:10116000006AAB6A0001960EDCDF070EB46E0F0E4C
:10117000C16EFE0E79DF400E77DF0E0E75DF1F0E9B
:1011800073DF1C0E71DF180E6FDF1C0E6DDF1F0E7C
:101190006BDF0E0E69DF000E67DFFE0E65DF480EA7
:1011A00063DF0E0E61DF1F0E5FDF1F0E5DDF1F0EA0
:1011B0005BDF1F0E59DF1F0E57DF0E0E55DF000ECF
:1011C00053DFFE0E51DF500E4FDF0E0E4DDF1F0EB0
:1011D0004BDF070E49DF030E47DF070E45DF1F0E0B
:1011E00043DF0E0E41DF000E3FDFFE0E3DDF580EE7
:1011F0003BDF030E39DF130E37DF1E0E35DF0E0E19
:1012000033DF0E0E31DF0A0E2FDF0A0E2DDF000E48
:101210002BDFFE0E29DF600E27DF0E0E25DF1F0EEF
:1012200023DF150E21DF150E1FDF1F0E1DDF1F0E22
:101230001BDF150E19DF150E17DFFE0E15DF680E0A
:1012400013DF110E11DF000E0FDF0A0E0DDF0A0E85
:101250000BDF000E09DF000E07DF0A0E05DF0A0EA6
:1012600003DFFE0E01DF700EFFDE000EFDDE0E0E50
:10127000FBDE150EF9DE150EF7DE0E0EF5DE110E95
:10128000F3DE0E0EF1DE110EEFDEFE0EEDDE780E59
:10129000EBDE0A0EE9DE0A0EE7DE000EE5DE000EEA
:1012A000E3DE1F0EE1DE050EDFDE020EDDDE000EE8
:1012B000DBDEA8DE0E6A106A080E105CD8B095EF6F
:1012C00009F0020E105CD8A468EF09F0030E106E4E
:1012D000010E0F6E110E0F5CD8B092EF09F0800E68
:1012E000016E010E026E0F509CDE1050BDDE800EAE
:1012F000016EC30EA8DE110EF76E540EF66EACDE54
:10130000640E0FDF800E016E010E026E0F5089DE3B
:10131000200EAADE84B48FEF09F096EF09F00F2AB1
:10132000D8A0D8D7102AD8A0C7D7C5D7010E0F6E1E
:10133000110E0F5CD8B0BBEF09F00E6A020E0E5C06
:10134000D8B0B8EF09F0800E016E010E026E0F509A
:1013500068DE0E5089DE960EE4DE800E016E010E10
:10136000026E0F505EDE200E7FDE0E2AD8A0E6D77A
:101370000F2AD8A0DDD7010E0F6E040E0F5CD8B077
:10138000E0EF09F00E6A020E0E5CD8B0DDEF09F056
:10139000800E016E020E026E0F5043DE0E5064DEB0
:1013A000960EBFDE800E016E020E026E0F5039DE09
:1013B000200E5ADE0E2AD8A0E6D70F2AD8A0DDD7F5
:1013C000030E0F6E0F52D8B405EF0AF0010E0E6E29
:1013D000030E0E5CD8B002EF0AF0800E016E020E12
:1013E000026E0F501EDE0E503FDE960E9ADE800E0D
:1013F000016E020E026E0F5014DE200E35DE0E2A34
:10140000D8A0E6D70F06D8B0DDD7100E0F6E0F525A
:10141000D8B437EF0AF0040E0F5CD8A416EF0AF028
:10142000800E016EC70E0FDE060E1EDE010E0E6E62
:10143000030E0E5CD8B034EF0AF0800E016E020E7F
:10144000026E0F5011EC08F00E500EDE960E69DEA3
:10145000800E016E020E026E0F5011EC08F0200E8D
:1014600003DE0E2AD8A0E4D70F06D8B0D0D723D7F2
:061470000300FED7FFD7C8
:020000040030CA
:08000000E4FEFFEEFFFD9BFF93
:00000001FF
