:020000040000FA
:1010000080EF0AF0800E016EFE0E04EC09F0010E76
:1010100004EC09F0750E086E300E57EF09F0016A06
:10102000018E166EFE0E04EC09F0165004EF09F066
:10103000286E19AE03D02D0E04EC09F01B3E04D02F
:101040001A3E02D0194A192A206A216A226A236AA2
:10105000198E6A0E1826D89019321A321B32233292
:10106000223221322032183EF6D71B50185C1B2644
:10107000185E1A50195C1A26195E046A3AD82E0EA8
:1010800004EC09F0296AD89020341B6E21341A6EC2
:101090002234196E2334186E2936D8901B361A362E
:1010A00019361836293620501B262150D8B0213C3D
:1010B0001A262250D8B0223C19262350D8B0233CFF
:1010C0001826D8B0293ED8901B361A36193618364D
:1010D00029362950300F04EC09F01BC020F01AC04B
:1010E00021F019C022F018C023F0282ECBD7D890B9
:1010F00012000096045003E100860A0E046E1BC025
:101100000AF01AC009F019C008F018C007F0036A05
:10111000126A116A106A0A0E0F6E62EC09F0032A55
:101120000350045CD8A4F4D70F50D8A4009600A6AE
:1011300002D0042C04D00F50300F04EC09F0042E20
:10114000DED71200A66AA68E0900F55002E002D88A
:10115000FBD71200146E8A9600008A94939693949B
:101160000F0E9316145000B2D8EF08F03A0E086E26
:10117000980E57EC09F0330E136E2DD8130E086E2F
:10118000880E57EC09F027D8640E56EC09F023D8E6
:10119000640E56EC09F0220E136E1DD8280E07D8E7
:1011A0000C0E05D8060E03D80082145001D0008022
:1011B000136E00A00BD08A9403080CE30BD8070E23
:1011C000086ED00E57EC09F0D88012000080FE089F
:1011D00019E08A8400A000908A860F0E81161350B1
:1011E000F00B8112000000D0000000008A96133A34
:1011F000000000D00000000000B0EDD7320E56EC29
:1012000009F0D8801450120001BEAAEF08F00F0EAA
:10121000EA6E02C0E9FF0550E988E92AEC1202C033
:10122000E9FF0B6A07A00B6E3AEC09F0D8B4120084
:101230003AEC09F0D8B412003AEC09F012000F0EA3
:10124000EA6E02C0E9FF051CE988E92AEC1607509E
:101250000810D8B41200BFEC09F002C0E9FF055035
:10126000EF1A000000D000D0072AD8B4083EF9D702
:10127000EF1A120005500B1A010E076E086AEF50A4
:1012800005140B18D8A41200072AD8B4083EF7D7C3
:1012900012000C6A0B6EFF0E0B260C2200D0D8A099
:1012A0001200030E086EE60E02D8F5D7086AFE0F8C
:1012B000076E0000E86A085AD8A01200070600D09E
:1012C00000D0F7D70A501218800BF46E0AAE06D081
:1012D000D880000E0756085609560A5612AE06D098
:1012E000D880000E0F561056115612560B6A0C6A13
:1012F0000D6A0E6A1C6A1D6A1E6A1F6A125011105E
:1013000010100F1023E0200EF36ED8900736083629
:1013100009360A361C361D361E361F360F501C5C29
:1013200010501D5811501E5812501F5809E30F50ED
:101330001C5E10501D5A11501E5A12501F5AD88050
:101340000B360C360D360E36F32EDFD7F4AE06D044
:10135000D880000E0B560C560D560E560BC007F0DB
:101360000CC008F00DC009F00EC00AF01CC00FF050
:101370001DC010F01EC011F01FC012F01200071E99
:10138000081E074A082A120021501E6E25182C6ECE
:10139000245053E0205254E0205E7F0E03E22026CA
:1013A00003E24DD020264EE223C01CF022C01DF0E7
:1013B0001E8E258E180E2B6E236A226A216A0BD090
:1013C00027501C5C26501D5811E31D6E1E6A2750C5
:1013D0001C5E0BD004E225501E5CF2E007E32750B0
:1013E0001C5E26501D5A25501E5AD88023362236A0
:1013F00021361C361D361E362B2EECD721BE07D0CB
:1014000020521DE02C3220062B2A2C36E3D72AACA2
:101410001FD007E227501C5E26501D5A25501E5A29
:1014200017E3233E15D0223E13D0213E11D02132A6
:1014300022322332203E0CD005D02A8604D02A84C2
:10144000206A02D02A822068236A226A800E216ED6
:101450002CAE219E23501200226A236A960E2B6E18
:101460002C9E23AE07D0D880000E2056215622563F
:1014700023562C8E235218E02AAC0DD023AE0BD06D
:10148000212A09E1222A07E1232A05E1D880233213
:10149000223221322B2A080E2B2621C020F022C016
:1014A00021F023C022F011D022520FE1080E2B5E52
:1014B000215007E1080E2B5E205002E1235010D08E
:1014C000206A226E20C021F0206A22BE06D0D89069
:1014D0002036213622362B06F8D72CAE229E2B50F2
:1014E00020C023F0206E225021C022F0216E120075
:1014F00044495354414E43494120454E20636D00B9
:10150000F86A400E2A6E006AAB6A0001960EC1DED0
:10151000070EB46EB46E0F0EC16E02EC08F0010E31
:101520000C6EF40EB7DE8190086A0A0E076E810E0B
:10153000026E010E056E83DE010E076E810E026ED5
:10154000020E056E64DE08C021F007C020F084DFC3
:1015500023C030F022C02FF021C02EF020C02DF08B
:10156000276A266A680E256E840E246E30C023F02A
:101570002FC022F02EC021F02DC020F005DF23C0A7
:1015800030F022C02FF021C02EF020C02DF0800EB0
:10159000016E0FEC08F0140EF76EF00EF66EA2EC72
:1015A00008F0800E016EC40E0FEC08F030C01BF086
:1015B0002FC01AF02EC019F02DC018F0020E18EC32
:1015C00008F0200EAAEC08F0630EAAEC08F06D0EED
:1015D000AAEC08F0200EAAEC08F0010E0C6EF40E36
:0A15E00059DEA2D70300FED7FFD7A3
:020000040030CA
:08000000E4FEFFEEFFFD9BFF93
:00000001FF
