:020000040000FA
:101000002FEF08F0036E010E02D0036E040E006E87
:101010000450025C02E10350015C040ED8B0010EE2
:10102000D8B4020E0014D8A4010E1200046A036E94
:10103000FF0E0326042200D0D8A01200030E026E79
:10104000E60E02D8F5D7026AFE0F016E0000E86ACC
:10105000025AD8A01200010600D000D0F7D7F86AD3
:10106000AB6A0001960EE2DF070EB46E0F0EC16E82
:10107000050E076EDC0E066E050E096EDC0E086EA0
:10108000806A836A926A956883BA4FEF08F0050E0A
:10109000076EDC0E066E050E096EDC0E086E010E84
:1010A00083B0E86A056E07C002F006C001F0090EC1
:1010B000046EC40EAADF0516D8B463EF08F0020E62
:1010C0000626000E0722010E83B2E86A056E07C0ED
:1010D00002F006C001F0010E046EF40E93DF051657
:1010E000D8B477EF08F0020E065E000E075A929011
:1010F000808007C002F00650A7DF8090E86A83B4C2
:10110000010E056E09C002F008C001F0090E046E60
:10111000C40E7BDF0516D8B492EF08F0020E082645
:10112000000E0922E86A83B6010E056E09C002F0BE
:1011300008C001F0010E046EF40E64DF0516D8B489
:10114000A6EF08F0020E085E000E095A9292808205
:1011500009C002F0085078DF8092120E67DF94D742
:02116000FFD7B7
:020000040030CA
:08000000E4FEFFEEFFFD9BFF93
:00000001FF
