:020000040000FA
:1010000099EF08F0056E010E02D0056E040E026E17
:101010000650045C02E10550035C040ED8B0010EDA
:10102000D8B4020E0214D8A4010E1200800E016E74
:10103000FE0E7DEC08F0010E7DEC08F0750E046EDE
:10104000300E8EEF08F0086E8A9600008A94939610
:1010500093940F0E9316085000B251EF08F03A0E19
:10106000046E980E8EEC08F0330E076E2DD8130E1A
:10107000046E880E8EEC08F027D8640E8DEC08F014
:1010800023D8640E8DEC08F0220E076E1DD8280EB2
:1010900007D80C0E05D8060E03D80082085001D0E0
:1010A0000080076E00A00BD08A9403080CE30BD8D5
:1010B000070E046ED00E8EEC08F0D880120000806F
:1010C000FE0819E08A8400A000908A860F0E81161F
:1010D0000750F00B8112000000D0000000008A963B
:1010E000073A000000D00000000000B0EDD7320E3B
:1010F0008DEC08F0D8800850120001BE23EF08F0F4
:10110000066A056EFF0E0526062200D0D8A0120042
:10111000030E046EE60E02D8F5D7046AFE0F036EC6
:101120000000E86A045AD8A01200030600D000D0DC
:10113000F7D7F86A006AAB6A0001960EE1DF070E86
:10114000B46E0F0EC16E72DF050E0B6E460E0A6E88
:10115000FE0E926E93689668806A816A846A010EB8
:1011600084B4E86A096E0BC004F00AC003F0090EEB
:10117000066EC40E4ADF0916D8B4C1EF08F00A4A59
:101180000B2AE86A84B4010E096E0BC004F00AC091
:1011900003F0010E066EF40E35DF0916D8B4D4EF55
:1011A00008F00A06000E0B5A929080800BC004F0E3
:1011B0000A50B4DF8090120EA3DFD1D70300FED710
:0211C000FFD757
:020000040030CA
:08000000E4FEFFEEFFFD9BFF93
:00000001FF
