:020000040000FA
:10100000E8EF08F0800E016EFE0EB3EC08F0010E62
:10101000B3EC08F0750E056E300EC4EF08F0016AEF
:10102000018E0D6E0D5202E1000E01D0010E0D5E1B
:10103000400E0202F350400F0D26FE0EB3EC08F0F6
:101040000D50B3EF08F0016A018E0D6EFE0EB3EC89
:1010500008F00D50B3EF08F0A66AA68E0900F5500F
:1010600002E002D8FBD712000B6E8A9600008A9429
:10107000939693940F0E93160B5000B262EF08F004
:101080003A0E056E980EC4EC08F0330E0A6E2DD899
:10109000130E056E880EC4EC08F027D8640EC3EC5E
:1010A00008F023D8640EC3EC08F0220E0A6E1DD897
:1010B000280E07D80C0E05D8060E03D800820B5058
:1010C00001D000800A6E00A00BD08A9403080CE3C4
:1010D0000BD8070E056ED00EC4EC08F0D8801200B5
:1010E0000080FE0819E08A8400A000908A860F0E16
:1010F00081160A50F00B8112000000D000000000A1
:101100008A960A3A000000D00000000000B0EDD737
:10111000320EC3EC08F0D8800B501200ABB2AB9883
:10112000AB8802C004F003C005F0066A076A00003D
:1011300000D000009EBA14D0E868062607220422D8
:101140000522D8A012000648073CF1D7DC0E066E37
:10115000020E076EEED7ABB2AB98AB889EAAFED755
:10116000AE50D880120001BE34EF08F0076A066E58
:10117000FF0E0626072200D0D8A01200030E056E2F
:10118000E60E02D8F5D7056AFE0F046E0000E86A85
:10119000055AD8A01200040600D000D0F7D7455356
:1011A000504552414E444F204441544F53004C450A
:1011B00044203D20456E63656E6469646F004C4554
:1011C00044203D204170616761646F202020000051
:1011D000F86A006A4D0EAF6E200EAC6E900EAB6ECC
:1011E0000001960EC3DF070EB46E0F0EC16E946A37
:1011F0008268040E966E846A640EB8DF03DF800E88
:10120000016EC00E20DF110EF76E9E0EF66E24DF0B
:10121000036A320E026E82DFD8A043EF09F0106E2F
:10122000800E016E010E026E1150FBDE10501CDFAD
:10123000112A110E115CD8A020EF09F0010E116ED9
:10124000140E105CD8A432EF09F096928D82800EB5
:10125000016EC00EF8DE110EF76EAE0EF66EFCDEFD
:1012600042EF09F01E0E105CD8A442EF09F09692EE
:101270008D92800E016EC00EE6DE110EF76EBE0E70
:0E128000F66EEADEC5D7010E116EC2D7FFD79B
:020000040030CA
:08000000E4FEFFEEFFFD9BFF93
:00000001FF
