:020000040000FA
:101000001AEF08F0036A026EFF0E0226032200D0D8
:10101000D8A01200030E016EE50E02D8F5D7016AC2
:10102000FC0F006E0000E86A01D000060000015AC3
:10103000FCE21200F86AAB6A0001010E036EF40EC6
:10104000E2DF070EB46E0F0EC16E926A936A040E51
:10105000966E816A846A84B432EF08F037EF08F044
:1010600037EF08F084A437EF08F078EF08F093909A
:101070008A80960EC7DF93908A90960EC3DF939274
:101080008A82960EBFDF93928A92960EBBDF93946C
:101090008A84960EB7DF93948A94960EB3DF939664
:1010A0008A86960EAFDF93968A96960EABDF93985C
:1010B0008A88960EA7DF93988A98960EA3DF939A54
:1010C0008A8A960E9FDF939A8A9A960E9BDF939C4C
:1010D0008A8C960E97DF939C8A9C960E93DF939E44
:1010E0008A8E960E8FDF939E8A9E960E8BDFB3D7E5
:1010F000939E8A8E960E86DF939E8A9E960E82DF40
:10110000939C8A8C960E7EDF939C8A9C960E7ADF47
:10111000939A8A8A960E76DF939A8A9A960E72DF4F
:1011200093988A88960E6EDF93988A98960E6ADF57
:1011300093968A86960E66DF93968A96960E62DF5F
:1011400093948A84960E5EDF93948A94960E5ADF67
:1011500093928A82960E56DF93928A92960E52DF6F
:1011600093908A80960E4EDF93908A90960E4ADF77
:0811700072D70300FED7FFD780
:020000040030CA
:08000000C0FCFFEEFFFD9BFFB9
:00000001FF
