:020000040000FA
:101000001BEF08F0036A026EFF0E0226032200D0D7
:10101000D8A01200030E016EE60E02D8F5D7016AC1
:10102000FE0F006E0000E86A015AD8A01200000608
:1010300000D000D0F7D7F86AAB6A0001960EE2DF65
:10104000070EB46E0F0EC16E050E056E460E046ED1
:10105000FE0E926E936896689668806A816A846ACA
:10106000836A84B438EF08F0080E056EFC0E046E37
:1010700084A43FEF08F0050E056E460E046E83B0A3
:1010800046EF08F0020E056E580E046E92908080B6
:1010900005C001F00450C4DF8090120EB3DFE1D729
:0210A000FFD778
:020000040030CA
:08000000E4FEFFEEFFFD9BFF93
:00000001FF
