:020000040000FA
:101000001BEF08F0036A026EFF0E0226032200D0D7
:10101000D8A01200030E016EE60E02D8F5D7016AC1
:10102000FE0F006E0000E86A015AD8A01200000608
:1010300000D000D0F7D70001960EE4DF0F0EC16E8E
:10104000070EB46E050E056E460E046EFE0E926E11
:101050009668806A846A84B404D0090E056E2E0EE8
:10106000046E84A404D0010E056EA40E046E92904A
:10107000808005C001F00450D3DF8090120EC2DFE3
:04108000EAD7FFD7D5
:020000040030CA
:08000000C0FCFFEEFFFD9BFFB9
:00000001FF
